:020000041000EA
:1000000000B5324B212058609868022188439860DF
:10001000D860186158612E4B002199600221596106
:100020000121F02299502B49196001219960352056
:1000300000F044F80222904214D00621196600F024
:1000400034F8196E01211966002018661A6600F04E
:100050002CF8196E196E196E052000F02FF8012189
:100060000842F9D1002199601B49196000215960AB
:100070001A491B48016001219960EB211966A021F2
:10008000196600F012F800219960164914480160C1
:100090000121996001BC002800D000471248134993
:1000A000086003C880F30888084703B5996A0420EC
:1000B0000142FBD001200142F8D103BD02B5186610
:1000C0001866FFF7F2FF186E186E02BD00000240BE
:1000D000000000180000070000035F00212200005C
:1000E000F4000018222000A00001001008ED00E03C
:1000F00000000000000000000000000074B24E7A12
:1001000000100420890200101102001011020010DA
:100110001102001011020010110200101102001053
:100120001102001011020010110200101102001043
:100130001102001011020010110200101102001033
:100140001102001011020010110200101102001023
:100150001102001011020010110200101102001013
:100160001102001011020010110200101102001003
:1001700011020010110200101102001011020010F3
:1001800011020010110200101102001011020010E3
:1001900011020010110200101102001011020010D3
:1001A00011020010110200101102001011020010C3
:1001B00011020010110200101102001011020010B3
:1001C0005050414467452301EFCDAB890010042016
:1001D0008902001070706164F2EB88719C700010ED
:1001E0009C700010D402001090A31AE7D3DEFFFF2A
:1001F000420111004802000000000100030200005B
:1002000000010010FF05000000000000793512AB6E
:1002100072B671B6BFF36F8F8CB0EFF30580C0B2CA
:10022000103800900194029503960497404605907B
:1002300048460690504607905846089068466030F9
:100240000990EFF314800A9068460A4B98470A4BCE
:1002500056221A60DA60094B05221A609A61084B2F
:100260000122D200013292059A601A6005490139D3
:10027000FDD1FAE7550C00105CC00140B4400140CC
:100280001C0000D0C0C62D001B4880F308881B4806
:100290001B4908601B480068002813D11A491B4AF3
:1002A0001B4B01E001C901C29A42FBD319491A4A0A
:1002B000002000E001C19142FCD11849884718494B
:1002C0008847FEE772B60E490020086006C881F331
:1002D000088810479C700010000000209C0200203D
:1002E000000000000F480649086003C880F3088832
:1002F00008470D480130004700100420000100109D
:1003000008ED00E0000000D09C700010000000200C
:100310009C0200200006002044930320D515001005
:100320000D4F0010008000100000002000000000B1
:10033000074AEFF3108C72B69066D166FFE7FFE7CD
:10034000FFE7FFE7516F106F8CF3108870470000D4
:10035000000000D0074AEFF3108C72B610665166A9
:10036000FFE7FFE7FFE7FFE7516F106F8CF310889F
:1003700070470000000000D0002918D1002B11D1D7
:1003800010B4EFF3108C72B62C4C2066626600211C
:100390000023FFE7FFE7FFE7626F206F8CF3108811
:1003A00010BC704702460B46002000217047002B0E
:1003B00029D1130C26D1EFF3108C72B61F4B19669E
:1003C0005A66FFE7FFE730B4040C5A6F196F120446
:1003D00022431A66FFE7FFE7FFE7C04684B25A6F81
:1003E0001D6F120422431A66FFE7FFE7FFE72C04A4
:1003F0002D0C5A6F186F0019694100238CF3108877
:1004000030BC7047002370B40024002501267642DA
:10041000B44640260018494164416D41A41A9D41EB
:1004200002D2A4185D41003540414941664436423C
:10043000F2D122002B0070BC70470000000000D0F9
:10044000484041404840014B1B681847F86403206E
:10045000014B1B6818470000E064032010B500F052
:100460003BFE1D2000F092FC10BD000070B5D024B2
:1004700080250521AD042406192000F06FFC65627B
:100480001420656101F004F8094B1A68C0239B0130
:100490005340E022D2011340064A136000F0A8F94D
:1004A0000323054A43431089A561181870BDC0464F
:1004B00000C0044000D004403406002010B51D20C8
:1004C00000F0D6FC0122014B1A6010BD00F0044080
:1004D000F8B58027002508267F010D4B5C5D2000C4
:1004E00000F0CAFC0C220B4BE418A40023683C4328
:1004F0007340134023600023074A53550135082DEC
:10050000EBD1064A1370064A1370064A1370F8BD01
:100510008856001001700010398E0320428E03208F
:10052000438E0320418E032010B50024034B185D39
:10053000013400F06DFC082CF8D110BD8856001075
:1005400010B5094A1378D9B20133DBB20F2B00D9A9
:100550000023BFF35F8F054C24789C4202D0044CEB
:100560001370605410BDC046438E0320418E03209B
:10057000298E0320F7B51F4B01249B6A1E4E9B0A50
:1005800001936B461D4D9F88D0231D491B06095DB5
:100590005B680120CB40621E1A49034219D18B5C73
:1005A000002B0ED13B002D33FF332B808854E0B25B
:1005B000FFF7C6FF3780013402360235092CE3D13C
:1005C000F7BD6B462A889B889B1A632BF2DD2F8030
:1005D000EDE78B5C002BEED03388FB1A1BB2312B7E
:1005E000E9DD8020002340422043C0B28B54FFF756
:1005F000A7FFE0E700400540E6650320D66503203D
:1006000087560010398E03200C4B1878002802D032
:1006100000221A7070470A4A1378DBB2BFF35F8F6B
:10062000084909788B42F5D00749C95C0133DBB230
:100630000F2B00D8180010700800EBE7428E032043
:10064000418E0320438E0320298E032010B5FFF72F
:10065000DBFF43B2002BFADB10BD0000044B054A60
:100660001B78DBB213700022034B1A707047C04630
:10067000438E0320418E0320428E03200023054A2F
:10068000D15C002904D10133082BF9D10120704736
:100690000020FCE7398E032010B5FFF7EFFF00289C
:1006A000FBD010BDF8B5D02700240126114D3F0620
:1006B000287800F0E1FB32002B789A407A620E4AEB
:1006C000125D002A0DD00D4ADB009B1880225201DA
:1006D00019681A4380235B004B40C02189000B40FE
:1006E0001360E0B204F0A8FF631C01353400022B54
:1006F000DED1F8BD6A0200206802002004400140FB
:1007000010B5044C207800F083FB607800F080FB8B
:1007100010BDC0466A02002010B5FFF7C3FF0120DC
:1007200003F00AFAFFF7D4FEFFF798FE03F00EF885
:1007300010BD10B5FFF7E4FF03F08AFAFFF7F4FEEF
:10074000FFF7BCFE03F04CF810BD000010B5EFF34E
:10075000108472B6D0231B061B68002B19D1FA2017
:100760000F4A104913688000053313600E4B0F4A7F
:100770009B6A9BB213800A88531D9BB2834206D3A7
:100780000B4B0C48D21893B20268013202601BB2C4
:100790000B8000F075FF84F31088FFF7EBFE10BDAF
:1007A000AC650320D265032000400540F6650320B8
:1007B0001DFCFFFFB86503200422054B1A60054BA2
:1007C000FC3219681142FCD058680005000D7047D2
:1007D00000E0044000C0044070B510250024FFF77D
:1007E000EBFF013D0419A4B2002DF8D1200070BD2B
:1007F00010B5FFF7F1FF024B5B895843001410BDA1
:1008000034060020142310B50100188804331B8817
:10081000984710BD162310B50100188802331B88B5
:10082000984710BD10B52848FFF7ECFF274B18601C
:100830002748FFF7E7FF274B18602748FFF7E2FF3D
:10084000264B18602648FFF7DDFF264B1860264828
:10085000FFF7D8FF254B18602548FFF7D3FF254B3E
:1008600018602548FFF7CEFF244B18602448FFF797
:10087000C9FF244B18602448FFF7C4FF234B1860BE
:100880002348FFF7BFFF234B18602348FFF7BAFF49
:10089000224B18602248FFF7B5FF224B1860224810
:1008A000FFF7B0FF214B18602148FFF7ABFF214B4A
:1008B00018602148FFF7A6FF204B18602048FFF77B
:1008C000A1FF204B186010BD50330000C865032005
:1008D00052330000CC6503204C330000C065032078
:1008E00054330000C46503204D530000F864032016
:1008F00053340000FC6403204D430000E0640320F7
:1009000043340000E4640320554200005065032096
:1009100057560000BC6503204946000070090020BE
:100920004558000068090020524500004865032032
:10093000525000004C650320464300006C09002023
:100940004358000064090020F0B5050085B0002080
:10095000092D68D8834202D1464B8800C358002A2B
:1009600063D0002093425ED30E1F00200B2E5AD876
:10097000E81E414C04285ADD04200C277843201837
:100980008457002084424EDB3C4841551F212140C2
:10099000029100210391640603D40299039101217D
:1009A00002910C2400276C43354956086418190E2F
:1009B0001B02009301913B00009801998019794135
:1009C000FFF7DAFC63680600834200D26060C02350
:1009D0002F1F9B012343012F2DD8029A012A2AD1D0
:1009E00002321A60029BA2681A42FCD0039B216863
:1009F0005B014B408022F0215201490022430B4011
:100A00001360012F28D900980199802380229B012F
:100A10002343120166601A6000233200FFF7ACFC2A
:100A2000144BAD00E85005B0F0BD1A009CE7C74379
:100A3000FF173840A1E7802212011A600D4BAA006F
:100A4000D1580029D2D0586903235843FFF782FCBC
:100A500001300338FDD2C9E7236802994B400321D6
:100A60000B4013600123029A9340A2681342FCD00A
:100A7000C9E7C0465806002090560010FB650320C9
:100A800000800040A023F0B501278101DB05CB18D1
:100A90001A6985B03A4001922B4A06008918C02293
:100AA00092010A4317601A6918690092F2024240E3
:100AB0008025F020A024C0016D0102400D432A6072
:100AC000224AE405A2582248F2403A4002923A00F3
:100AD000B24002601F482058F0401F4E384003903B
:100AE0003260EFF3108672B6BFF35F8F1B4FE25197
:100AF00080201F6940040742FAD1194FE251194F73
:100B0000E2511C691C61BFF35F8F86F31088029C61
:100B1000002C01D0144C22600398002801D0134807
:100B20000260F0221869009BD20113404340134039
:100B30002B60019B002B04D0802301229B010B43DF
:100B40001A6005B0F0BDC04610000050040400005B
:100B50000434005014040000143400504404000015
:100B60000C0400001C040000042400501424005055
:100B7000F0B585B0009300230393A0239401DB0517
:100B80000700100016000A9D0191E418FFF77AFF94
:100B9000F0227B015200134072001343FA064CD43A
:100BA00001221343BF0602D58022D2001343244AF8
:100BB00024491360019BF7020B60009B944623605D
:100BC00003AB636003232048009E009A38431E4015
:100BD0001A420ED0002D18DD01339B1BAB4200DD05
:100BE0002B00ED1AA360E06080235B0426691E429F
:100BF000FCD1AB10032D08DDA360144E3E43E6602C
:100C000080235B0426691E42FCD103232E001E4074
:100C10001D4206D0A660E06080235B042069184274
:100C2000FCD1C023012010349B012343186062468D
:100C300000230868136005B0F0BD054AB1E7C0465F
:100C4000340400503804005011809F0019809F0028
:100C50000108000070470000802010B5FC2140050D
:100C600000F0E6FD034B1B68181A42425041C0B227
:100C700010BDC046FC000010F0B500248BB002ABE4
:100C8000581C0C220021FFF7DEFB0D22002106A8D4
:100C9000FFF7D9FB4B23260002AA137006A90D22E9
:100CA00002A804F0B9FC1F4F019406AD73195B79DB
:100CB0000093009A1C4B10099A5500F0B4FE38704E
:100CC000009800F0B0FE019B220E00991B02240246
:100CD0001A43013678700C4301920237082EE4D192
:100CE000124B1C6000245A600E4B21001C7402AB96
:100CF0000322581CFFF7A7FB9F2302AA29001370A9
:100D000002A80422069404F087FC6A78084B1A7043
:100D1000AA78084B1A700123E978074A8B401360C0
:100D20000BB0F0BD168E03200E8E032000060020AF
:100D3000278E0320288E03207409002010B5054853
:100D4000FFF768FD044B010054221800FFF780FBF9
:100D500010BDC0465346000054650320094A830075
:100D60009B18C02210B5802492011A43146080227F
:100D70009201134340221A60034BC018C000416027
:100D800010BDC04604C001400028000810B5040092
:100D90001F21FFF7E3FF054B0C22E418C023A4003A
:100DA0009B0123431A6034321A6010BD0170001099
:100DB000044AC3109B009B1807221040800081400A
:100DC00019607047F040014007230B409B009A4098
:100DD00030234343C9108900C918034BC918C023E5
:100DE0009B010B431A6070470041014007230B40F1
:100DF0009B009A4030234343C9108900C918034B14
:100E0000C918C0239B010B431A6070471041014071
:100E100010B5040001000F220020FFF7D5FF2100CC
:100E20000F220120FFF7D0FF21000F220020FFF743
:100E3000DDFF0F2221000120FFF7D8FF20000F2146
:100E4000FFF7B6FF0123D022A340120693629361FD
:100E50005622054BE3189B001A60044BE4181F232D
:100E6000E400636010BDC046017000100028000857
:100E700010B5FFF7CDFF10BD10B50400FFF7C8FF98
:100E80000123D022A3401206936205212000936122
:100E9000FFF764FF10BD0000084A83109B009B18F9
:100EA00003221040904010B5FF240630844081405A
:100EB0001A68A2430A431A6010BDC04600E400E06D
:100EC00010B50024200002210134FFF7E5FF202C9B
:100ED000F8D180220A4912060B689B009B08134335
:100EE0000B60C023074A1B0411680B438021136069
:100EF0001368C9059B009B080B43136010BDC046D7
:100F00001CED00E020ED00E0F0B589B007930EABDA
:100F10001B780692039300230F9A10261360039BFD
:100F200001900591002B01D1A02676002A4B029357
:100F3000059F069B77439F422BD3079B9F4228D850
:100F40000724E3B2049323006343E5B2009338001F
:100F50000099FFF7FFF9019BC31ADA179B1853405A
:100F6000029A93420BDA0F9A04991060109A029336
:100F70001760119A1680129A1170139A1570009BBF
:100F8000013D1B1BEDB20093002DE0D1013C002C74
:100F9000D7D1039B002B1AD0A0230136B6B25B0039
:100FA0009E42C5D90F9B019A1B68002093420BD12A
:100FB000129B01981A78139B1B7853435843109B3C
:100FC0001B68C01A43425841C0B209B0F0BD013E8F
:100FD000B6B20F2EACD8E5E7A0860100F0B50D0043
:100FE000FA211F000D4B0400D86A87B0F530890044
:100FF000FF301600FFF7AEF90D9B010005930C9B27
:10100000200004930023064A00930397054B0296A1
:101010000195FFF779FF07B0F0BDC04658060020E4
:10102000801A0600006A1800012383400200142081
:101030005043074A0749801800220B6006490260A6
:101040000B6010234360054B8260C26003617047F0
:1010500000000540A8300540A4000540FFFF000047
:101060000D4B10B5040058690200884200D90A00EF
:10107000C0009308C0185108FFF76CF9102800D27F
:10108000102080235B01984200D30448142363435B
:10109000034A9B18186010BD58060020FF0F00007F
:1010A00004000540034B044A18600100136899438B
:1010B000FBD1704700F0004008C0004010B5024B63
:1010C0001860FFF7EFFF10BD00E0004010B50120F1
:1010D000FFF7F4FF10BD000010B5FFF7F7FF002386
:1010E000064A1360064A1360064A13600122064B43
:1010F0001A60FF3219681142FCD010BD10060020A2
:101100000C0600200806002000C00440F0B585B0A1
:101110000A9E04001D0002910392B34202DB3300D9
:101120002E001D00164F0299F86AFFF713F92900E7
:10113000039B71435843FFF70DF923000C339A00CA
:10114000D051019001209840FFF7B8FFC0220D4B0D
:101150009201E418029BA4032360039BA360231D58
:101160001A43212313602368002BFCDA33042D0378
:101170001D4308230198E560136005B0F0BDC0462B
:10118000580600200A000100F0B50E260D2587B094
:101190006E446D4403AF04003300080001950097CE
:1011A00005AA04A9FFF71AFF049800280BD0297894
:1011B0003B783288200000910121FFF7A7FFFA2138
:1011C0008900FFF7C7F807B0F0BD00000E4A0F4BCB
:1011D00011680F484B401B050E491B0D0B600E4B51
:1011E00003600E480360AB231B01136110680C4BB6
:1011F00043400C4803400B600B4B0C4999629369C8
:10120000002BFCDA7047C04600000640A40F000027
:1012100004000640001006400000969608000640B4
:1012200000B0FA0000F0FF0058060020808D5B003F
:1012300010B5FFF77EFA1920FFF7EAFD0222014BF5
:101240001A6010BD10E000E0054B10B5C3185A1E1F
:101250009341012010339840FFF730FF10BDC04686
:101260000040FCBFC0230221021D9B011A4310B5A0
:101270001160020024321343012219601A60FFF743
:10128000E3FF10BD0222F0B5436887B01340059319
:10129000031D0493C023040004989B0103431A60B8
:1012A0002B4B9B695D1C02936D088D4200D90D008C
:1012B0000226E90D6802AB0DAA0201960236002B48
:1012C00007D1029FBA4204D812184B41FE2EF4D126
:1012D0000196FF278026019B76005F433900029824
:1012E0000396013EFFF736F8A84218D9039B0199EF
:1012F0005E1E71430298FFF72DF8401BC317C718F5
:1013000001995F40039B02985943FFF723F8401B64
:10131000C317C0185840874205DB039E03E0019BBA
:10132000FF1A012EDAD1019B013E236122683602A9
:1013300056408023FF225B011202234316401E60A9
:101340008023049A9B011343059A1A6007B0F0BDED
:101350005806002070B504000D00FFF775FF290046
:101360002000FFF78FFF0722216880234A400F21CA
:101370005B0123430A401A60226831310A401A6037
:10138000226840310A401A602200802301209B011C
:10139000043424321A437E392343116010601960EB
:1013A00070BD30B5022404258A18531A002B0BDCBB
:1013B00010230421C2681A4213D10423C2681A42BE
:1013C00013D10123036230BDC3682342FCD00B78E4
:1013D0008360C3682B4201D10131E6E78368F8E7F7
:1013E0008268C2680A42FBD1E4E78268E6E700004F
:1013F0000022064B1A60BFF35F8F054B0549BFF310
:101400005F8F04C38B42FAD17047C046A8650320A2
:10141000000100D0800100D0D0231B061B68002BE8
:101420000AD1114A1360114A1360114A1380114BFB
:10143000114A9B6A9BB213800223104A1360104B1F
:1014400010491B68D963BFF35F8F80210E4B0F4893
:1014500053600368C9059B009B080B43036000238E
:101460009360033313607047AC650320B8650320B5
:10147000D265032000400540F665032010E000E03F
:1014800008ED00E04D0700108713000020ED00E09C
:10149000034A916A936A5B1A8342FBD37047C04642
:1014A00000400540FA2310B59B005843FFF7F0FFBA
:1014B00010BD0000034A044B1A60044A5368002B15
:1014C000FCDA704700B0FA000060024000400240C1
:1014D000AA22064B120110B51A602F22044B1A6083
:1014E000044B054ADA62FFF7E5FF10BD00400240F9
:1014F0000C40024058060020001BB70010B54022E7
:1015000000212848FEF79FFF002110222648FEF701
:101510009AFF0022254B1A60FFF758FEFFF7D8FF0D
:101520008322234B9200DA620322224B22491A6063
:1015300001230A681A42FCD00322204B20491A607A
:1015400001230A681A42FCD01E490020FFF71CFE46
:101550001D490120FFF718FE00230B211A0004206B
:10156000FFF7F2F900230C211A000520FFF7ECF930
:1015700000230D21154A0720FFF7E6F900230D216E
:10158000124A0820FFF7E0F900230D21104A092034
:10159000FFF7DAF900230D211A000620FFF7D4F92E
:1015A00010BDC04658060020FB650320788000402F
:1015B000008005403CB000404480004030B0004016
:1015C0003880004048E8010000770100006CDC0230
:1015D0001BB70000204B214A70B521481A60FFF765
:1015E00061FD204C204B9C422FD3FFF71BF9FFF7E6
:1015F000A5FBFFF765FCFFF781FF1C48FFF752FDD5
:10160000C0221B4C1B4D200029689200FEF720FFD2
:101610002C60FFF7EDFEFFF72FFB00F043F900F021
:101620004DF8FFF7F9FE00F0A5FF134C134B9C4259
:101630000ED31920FFF720FCD02380221B06920432
:101640005A629A61FFF768F870BD08CC9847C9E7FD
:1016500008CC9847EAE7C04600E00040BFCDFB0059
:10166000FE7F3C008856001088560010FFFFFF01E7
:101670000003002008ED00E0885600108856001096
:10168000D0231B061A680B4B70B51C680A4BD2009E
:10169000D058D6180568B04200D170BD8268A31A30
:1016A0000F2B04D8C3689B188360036998472800F0
:1016B0002D68F0E7AC65032014060020034B044AB4
:1016C0001B605B609A60DA607047C04614060020B9
:1016D0001C06002010B52022FF210400FEF7B3FEF7
:1016E0006423A370054B6360054BA360054BE36067
:1016F000054B2361054B636110BDC04668101C0C8F
:101700003701E40C6ABC343F2D93E13A001BB7006B
:10171000802110B50248490103F0AEFF10BDC0465C
:1017200000F01F000A235843044AFF2802DDFF206F
:1017300090707047C343DB171840F9E73406002068
:1017400010B5054B0A219878FEF704FE0130C0B2AF
:10175000FFF7E8FF10BDC0463406002010B5054B6A
:101760000A219878FEF7F6FDC0B20138FFF7DAFFDC
:1017700010BDC0463406002010B5082808DD08203A
:1017800001238340044A013BD37002F0CDF910BD20
:10179000C343DB171840F3E73406002010B5064BAF
:1017A000D878064B1B6898472023181AC0B201301E
:1017B000FFF7E2FF10BDC04634060020C0650320DD
:1017C00010B5064BD878064B1B6898472023181A8B
:1017D000C0B20138FFF7D0FF10BDC046340600206C
:1017E000C065032030B50A4C8A18531A002B00DC60
:1017F00030BD0B781B065840082305004000002D23
:1018000000DA6040013B002BF7D10131EDE7C04623
:10181000B71DC10413B50B001100D0220B24120612
:1018200012680091A21A01000020FFF7A1F916BD6D
:10183000012310B50A0001005842FFF7D3FF10BD85
:10184000012310B50A0001005842FFF7E3FF10BD65
:1018500030B5FF250F248A186D01531A002B00DCC8
:1018600030BD0B7840BA80B258400311234043404A
:101870001BB2180343401BB258012840584080B2A5
:101880000131EAE710B50A0001000248FFF7E0FF66
:1018900010BDC046FFFF000010B51E210230FFF74B
:1018A000F1FF10BD70B5114C7F252000FFF712FF2E
:1018B0000F4B6E01F6187369013314D03000FFF737
:1018C000EBFF338883420ED13000230046C846C365
:1018D00046C846C306C806C3E378002B01D10133CE
:1018E000E370280070BD013DE2D2FAE73406002023
:1018F00000F01F10F0B5244CC1B06369013302D170
:1019000002235B4263612000FFF7C6FF01257F21B0
:101910001E4B1F4F20806D421E001A00203610689B
:10192000013009D10432B242F9D1203B0D004A1EE8
:10193000BB4205D01100EFE76B1C02D1FFF7E8FEB8
:10194000002507232F0080229F43ED1B6D010135E9
:10195000FF35104B6D447E01013DF1185200684681
:10196000FF3DFEF775FD2B0007CC07C307CC07C36F
:1019700006CC06C38022084B6946F018520003F0DB
:1019800063FE41B0F0BDC04634060020E0FF1F10EA
:10199000E0EF1F1000F01F1000F01F00F0B5002452
:1019A0008BB006AB5C730D230F002600039206AAD2
:1019B0009B18059001930A213800FEF7CBFC019B90
:1019C00004900A2138005D1EFEF7C4FC731C303100
:1019D000297002930134092F07D829000598B21CF9
:1019E000FEF736FD02980BB0F0BD032C09D1039B26
:1019F000002B06D00024B31C019D0293039B023DE3
:101A00002B70049F029E0195D5E710B5002902DBDB
:101A1000FFF7C4FF10BD2D23494203700130FFF7CB
:101A2000BDFF0130F6E70F2303401800303039289E
:101A300001D9373318007047A020084B10B519683A
:101A40004000FEF775FC064C064B20701968F0202C
:101A5000FEF76EFC044C207010BDC04678020020DA
:101A6000750200207C02002074020020064B074A09
:101A700010B51A601022064B1A60064B083A1A601D
:101A8000FFF7DAFF10BDC04680020020FC5E0010A8
:101A90007C02002078020020064B074A10B51A602D
:101AA0000822064B1A60064B023A1A60FFF7C4FF81
:101AB00010BDC04680020020FC5600107C020020B1
:101AC00078020020F7B51D0008AB1B8807000C004A
:101AD000161E019301DA87185642002D01DA6419A7
:101AE0006D42002F01DAF6190027A022BB1952001F
:101AF000934200DDD61B002E24DD002C01DA2D19C7
:101B000000246319F02B01DDF0252D1B002D19DDBC
:101B100032002B002100380001F04CFFA0235B00B5
:101B20005C43094AE4199B1B6400A4185B0076001F
:101B3000A2190199218002349442FAD1013DE4189E
:101B4000002DF5D1F7BDC04678090020F0B587B06B
:101B50001C000CAB1B880700151E0D9E0291039301
:101B600030DA87185542002C34DA029B1B19029395
:101B70006442AB1B0493039B380002990093AA1B99
:101B80003300FFF79FFFA31B0593039B78193200D7
:101B90000299801B0093A31BFFF794FF029B049AFA
:101BA0001919039B891BF01900933300FFF78AFF73
:101BB000029B3200F118039B38000093059BFFF74E
:101BC00081FF03E0002C03DA002ACED107B0F0BD7C
:101BD000002AFBD0002CF9D0CBE737B5012506ACA5
:101BE000248801950094FFF7B1FF37BD07B50021A8
:101BF000A0220090F02308005200FFF763FF07BD0A
:101C000010B50020FFF7F2FF10BD0000A02310B5B3
:101C10005B00984208D2EF2906D84B43034C1B18AF
:101C20005B001A5301F0FEFE10BDC046780900208B
:101C3000F0B587B00493364B364F1B6802911B18E2
:101C400000933B68039201930B0013435ED4A025DD
:101C5000314E6D0032685318AB4257DC0199039B3B
:101C60000C005B18F02B3BDC0B000298039901F091
:101C7000A1FE039B029A6B4330689B18274A5B00C6
:101C80002D1A9B186A009446C243D21702403C6842
:101C90005200002C01DC07B0F0BD009D0099013519
:101CA000FF3500951E0005000978002D03DC9B1808
:101CB0006344013CEDE74FB2002F01DA049F378007
:101CC00049000236C9B2013DEFE7009B1D780133A0
:101CD000FF330093104B1F683E00002E08DC013CD0
:101CE000039B019A9B181B1B0593002CEDDCD2E78C
:101CF0006BB2002B06DA029B049AF8180599801B38
:101D0000FFF784FF6D00EDB2013EE6E7019CE7E7D7
:101D1000800200207C020020780200207809002048
:101D2000F0B587B00093474B474F1B6814001B1852
:101D300001933B68029103930B00134359D4A025F0
:101D4000424E6D00326852005318AB4251DC039B87
:101D50005B001919F0294CDC21006C43029801F05A
:101D600029FE029B3168E418394B64006D1AE418AF
:101D7000AB000293CB43DB170B409B000393A023E4
:101D80009B009C463868002801DC07B0F0BD019B31
:101D90000D001A780133FF3301932300002D05DC79
:101DA000039B0138E418029BE418ECE756B2002EBE
:101DB00008DA009E009F1E805E8066469F533E00AC
:101DC000244FDE5352000433D2B2013DE6E7019BBB
:101DD000029D1B780493019B0133FF3301931B4B3E
:101DE0001B680593059B002B07DC039B0234013B1A
:101DF0000393039B002BEADCC7E76B461B7C5BB2BB
:101E0000002B15DA21002800009A6E1CFFF7FEFE59
:101E1000671C21003000009AFFF7F8FE3900280007
:101E2000009AFFF7F3FE39003000009AFFF7EEFE4C
:101E3000049B02355B00DBB20493059B013B0593D9
:101E4000D0E7C046800200207C02002078020020FB
:101E50007809002082020000F0B589B005930EAB2E
:101E60001B88394F0693394B03911B6804921B184A
:101E700001933B6802930B00134362D4A025344EB8
:101E80006D0032685318AB425BDC0299049B0C0076
:101E90005B18F02B41DC0B000398049901F08AFDDC
:101EA000049B039A6B4331689B182A4A5B006D1AA6
:101EB0009B186A000292CA43D2170A405200944605
:101EC0003868002801DC09B0F0BD019C019A01349A
:101ED000FF3401941D000C001278002C04DC029ADF
:101EE00063449B180138ECE756B2069F002E00DAD7
:101EF000059F52002F80D2B2013C0235EDE7019BD5
:101F00001D780133FF330193114B1F683E00039B83
:101F1000D819801B002E08DC013C049B029A9B18F8
:101F20001B1B0793002CEADCCDE76BB2069A002B53
:101F300000DA059A07996D00FFF768FEEDB2013EE1
:101F4000E5E7029CE9E7C0467C0200208002002011
:101F50007802002078090020F0B589B006930EAB16
:101F60001B88494F0793494B14001B6802911B18AB
:101F700001933B6803930B0013435BD4A025444EAD
:101F80006D00326852005318AB4253DC039B5B0078
:101F90001919F0294EDC21006C43029801F00AFD6A
:101FA000029B3168E4183B4B64006D1AE418AB00E7
:101FB0000293CB43DB170B409B003F680393002F3A
:101FC00001DC09B0F0BD019A019B0132FF320192A0
:101FD000A02220008C4692001B78A5186246002A99
:101FE00005DC039B013FE418029BE418E7E75EB2BF
:101FF000079A002E00DA069A028042802A806A80C0
:1020000001225B0052420430DBB294440435E5E720
:10201000019B029F1B780493019B0133FF330193C3
:102020001B4B1B680593059B002B07DC039B0234AD
:10203000013B0393039B002BEADCC2E76B461B7C4E
:10204000079D5BB2002B00DA069D38002A002100B4
:10205000FFF7DCFD661C781C2A002100FFF7D6FD87
:1020600038002A003100FFF7D1FD781C2A0031002A
:10207000FFF7CCFD049B02375B00DBB20493059BAA
:10208000013B0593CFE7C0467C0200208002002080
:102090007802002078090020F8B50C0016001F0017
:1020A000050001356B1E1878002808D03B00210080
:1020B0003200FFF7BDFD024B1B68E418F1E7F8BDE5
:1020C00078020020F8B50C0016001F00050001354D
:1020D0006B1E1878002809D03B0021003200FFF762
:1020E0001FFE034B1B685B00E418F0E7F8BDC04619
:1020F00078020020F0B50C00050085B01E000AAB88
:102100001F88039201356B1E1878002809D0330010
:102110002100039A0097FFF79FFE034B1B68E4180A
:10212000F0E705B0F0BDC04678020020F0B50C0025
:10213000050085B01E000AAB1F88039201356B1E97
:10214000187800280AD033002100039A0097FFF77F
:1021500003FF034B1B685B00E418EFE705B0F0BD1D
:10216000780200200023012804D9034B1B68984201
:102170009B415B42D8B27047F4080020084B8900AD
:10218000C958002310B5CA5C002A05D0C45C94422B
:1021900004D10133052BF6D1012010BD0020FCE74E
:1021A000CC56001010B50400FFF7DCFF002806D065
:1021B000034B023C1B785C43024B1868201810BD8F
:1021C000FA65032098060020074B817E0200C07E3E
:1021D0001B7800020843032B05D1537D117D1B02A0
:1021E0000B431B04184370470C6603208BB21B0A79
:1021F000C376054B81761B78032B03D1090C01753F
:10220000090A41757047C0460C660320002330B5AB
:102210000B724B75846A020020009C423ED018006D
:102220001C00D2680300105D202803D05D1CCB1871
:102230001872EBB2E0B2072806D12E24581CCB1836
:102240001C72C0B2263CEDE70134E0B20B28EAD1A3
:10225000002B05D0C818C0792E2801D1013BDBB274
:102260000024C81804724B75537F107F1B02034370
:10227000907F00041843D37F1B0603430B60D37D7C
:10228000907D1B0203438B80537E107E1B02034311
:10229000CB80D37A3F22012013408B7530BD0300E1
:1022A000613B192B01D82038C0B270470300026887
:1022B000107801321A600300613B192B01D82038D5
:1022C000C0B27047F7B502780F0001902E2A12D0E5
:1022D00000252C0001A8FFF7E9FF0600385D002E5D
:1022E0001FD10123202804D03300082C01D1013351
:1022F0006B40D8B20EE000250A782C002E2AE9D1D6
:1023000044782E2C07D18478AC42E2D14B782E2B26
:10231000E0D10120FEBD002CDBD14B78202BD9D1A0
:10232000F7E7FFF7BCFF3F2E01D086420BD1072C09
:1023300002D80134E4B2CDE7002DCBD00134E4B2B1
:102340000B2CC7D1E5E72E2E05D02A2E06D1002D65
:10235000DFD10824BEE708240125BBE70020D9E728
:102360007A281BD860281CD83C280FD8292803D8E5
:102370001F280AD8002008E002000B4B2A3AD2B2EC
:10238000D34001221340013B184070473F2802D838
:102390003D28EFD1F9E75C28ECD0F6E77C28F4D1B2
:1023A000E8E72038C0B2F0E721000500F7B50E00DD
:1023B0000B2220210190FEF746F834682378222B67
:1023C00013D02E2B13D000273D0020781F2809D9C9
:1023D00001342F2801D05C2821D123782F2B1CD049
:1023E0005C2B1AD00120346016E00134E6E70022AD
:1023F00023781F2BF6D90134222BF9D02E2B06D1AE
:10240000022A08D00198511C8354CAB2F0E72F2B3E
:10241000E8D05C2BE6D00020FEBD0134DDE72E289D
:1024200004D1002FF7D108250137CEE72228CCD0E0
:10243000FFF796FF0028EED0072D03D9002FC4D058
:102440000A2DC2D8019A6B1C5055DDB2BDE70000C1
:102450000122174B52421A600023022015490B70CB
:1024600015490B701549087015490B7015490B700B
:1024700015490B8015490B6015490B6015490A6019
:1024800015490A60154A1360154A1360154A13600E
:10249000154A1360154A1360154A1360154A1360F4
:1024A000154A1360154A1360154AD3619362704749
:1024B000700200200B6603200C6603206C020020D3
:1024C0000D660320FA650320F8650320D408002078
:1024D0003006002028060020240600202C060020BC
:1024E000F4080020F8080020CC060020F0080020A6
:1024F0009C0600209806002054060020D0080020EA
:10250000A0060020002303707047031E02D003784A
:102510005A1E9341D8B27047F8B5114D0B00140004
:102520002968104A06000020914217D169680E4AB6
:102530000F1F974212D8864200D03160002B02D084
:102540000A4A8A181A600A48FFF77AF9002C00D064
:102550002060AB68181A43425841C0B2F8BDC0466B
:10256000C080001050504144FC7FFF00CC80000030
:10257000CC800010144B154A1549D21A1000183897
:1025800030B508600020134908250860124918700A
:102590000860190058709870D87008316D42013881
:1025A000103A1D7158719871D8719B608C184A60EF
:1025B0000A000A4B08325A601A6001228B60CB6015
:1025C0009A6022C430BDC04650940320000004200D
:1025D000F46403200465032000650320E8640320FD
:1025E0000223064A11681942FCD00421044B1860EA
:1025F00010680842FCD01868C0B270470C00044054
:1026000008000440D023802210B51B0692015A61B5
:10261000FF20FFF7E5FFFF20FFF7E2FFFF20FFF7B6
:10262000DFFF10BD43B270B504000D00002B07DAC8
:1026300000213720FFF7F6FF012830D87F231C4008
:10264000FF20FFF7CDFFFF20FFF7CAFFFF20FFF7B6
:10265000C7FF40202043FFF7C3FF280EFFF7C0FF4E
:10266000280CC0B2FFF7BCFF280AC0B2FFF7B8FFC2
:10267000E8B2FFF7B5FF9520002C03D00E38082CE8
:1026800000D07830FFF7ACFF0A24FF20FFF7A8FF47
:1026900043B2002B03DA013CE4B2002CF5D170BD4B
:1026A000F8B500234A4C4B494B482370FEF7EAFD2E
:1026B00004234A494A480A681A4220D1FFF7A2FF78
:1026C0001425013DFF20EDB2FFF78AFF002DF8D160
:1026D000D02380221B069201FF209A61FFF780FF22
:1026E000642600210800FFF79DFF0700012842D063
:1026F000013EF6B2002EF4D1FFF784FF39E0026804
:10270000D9E700210120022B60D0FFF78BFF0121C8
:1027100001230140184208D0013E0A20F6B2FEF71C
:10272000C1FE002E4DD12670E6E72378032B14D18D
:102730003A20FFF777FF01280FD8FF20FFF750FF5F
:10274000400601D504232370FF20FFF749FFFF2037
:10275000FFF746FFFF20FFF743FF8021102089008D
:10276000FFF760FFFFF74EFF1E491B48FEF78AFD8B
:102770003D002800F8BDD521207049000820FFF752
:1027800051FF400711D4FF20FFF72AFFFF20FFF77A
:1027900027FFFF20FFF724FF0600FF20FFF720FFA1
:1027A000012E02D10323AA2809D02378012B07D1B7
:1027B0000021A920FFF736FF400701D40223237030
:1027C0001E262378032B9CD18021C905A9209CE7D4
:1027D000408F032090D00300000004400C00044010
:1027E0000800044040420F0070B506000D000E4C7A
:1027F000FF20FFF7F5FEFF2804D1013C002CF7D1A4
:10280000200070BD0024FE28FAD1FF20A54206DC7E
:10281000FFF7E6FEFF20FFF7E3FE0124F0E7FFF7F6
:10282000DFFE30550134F0E760EA000010B50B49D7
:102830000B48FEF727FDD02380221B0692019A61E8
:10284000FF20FFF7CDFEFF20FFF7CAFEFF20FFF7B6
:10285000C7FEFF20FFF7C4FE10BDC04640420F0078
:102860000000044010B5FFF7CDFEFF20FFF7B8FED3
:10287000FF20FFF7B5FEFF20FFF7B2FEFF20FFF7B6
:10288000AFFE10BD70B5124E040033780D00002B62
:1028900011D0FFF7CBFF0F490F48FEF7F3FC337859
:1028A000042B00D0640221001120FFF7BBFE00289A
:1028B00004D0FFF7A7FE0024200070BD802128006F
:1028C0008900FFF791FF0400FFF7CCFFF4E7C04653
:1028D000408F032000093D000000044070B5234EE6
:1028E000050033780C00002B11D0FFF79FFF204923
:1028F0002048FEF7C7FC3378042B00D06D02290076
:102900001820FFF78FFE002803D0FFF77BFE002082
:1029100070BD194DFF20FFF763FEFF2803D0013D76
:10292000002DF7D1F1E7FE20FFF75AFE80239B0030
:10293000E51820780134FFF753FEAC42F9D1FF20AF
:10294000FFF74EFEFF20FFF74BFE0B4CFF20FFF77B
:1029500047FEFF2802D0013C002CF7D1FF20FFF7F3
:102960003FFEFFF77FFF0120D2E7C046408F0320E4
:1029700040420F000000044060EA000070B5124BB6
:102980001A78002A01D1012070BD00220F4C104D91
:10299000210028681A70FFF7A1FF0028F4D00D4B22
:1029A0001B78002BEFD00C4B28681A680B4B1B6868
:1029B000C31A9342E7D20A4B1B78022BE3D12100C2
:1029C0008018FFF78BFFDEE70B660320D0060020A0
:1029D000700200200C660320F8080020F008002098
:1029E0000D66032070B50C4D04002B68834201D1A5
:1029F000012070BDFFF7C2FF002808D02000074962
:102A0000FFF740FF002804D101235B422B60002028
:102A1000EFE72C60ECE7C04670020020D0060020F3
:102A2000F7B50400FFF79EFB002807D0274B1E7860
:102A3000022E2DD0032E39D0012E02D0012040428B
:102A4000FEBD234F65083B682D19680AC018FFF7C3
:102A5000C9FF0028F2D01F4B0093009AEB05DB0D55
:102A6000D35C013501933B68680AC018FFF7BAFFD1
:102A70000028E3D0009BED05ED0D585D019B0002A1
:102A80001843344201D00009DAE70005000DD7E70A
:102A90000F4B60001B68400AC018FFF7A3FF002817
:102AA000CCD00C4B2406E40D185BC9E7084BA00002
:102AB0001B68400AC018FFF795FF0028BED0054BE1
:102AC0006406E40D18590001DDE7C0460C660320DA
:102AD000F0080020D0060020F8B5002305000C0007
:102AE0008362CB0601D00020F8BDC6690162002ECA
:102AF00009D0184F30003B68A34221D9FFF752FBA1
:102B000010E01E00F5E7144B1B78032B03D1134B89
:102B10001B68002BF5D1124B1B885B01A342E2D945
:102B20000E4B1868A8620028DDD0630A1B18AB6240
:102B3000E4050C4BE40DE41801206E62EC60D3E771
:102B4000FFF76EFF0600FFF70DFB0028CBD03B68B8
:102B5000E41ACEE7300600200C6603209C06002015
:102B6000F8650320D0060020F8B5041E01D100202E
:102B7000F8BD0378002BFAD086698E4200D90E008A
:102B8000226AB24211D000222662A26296420CD082
:102B9000E569013E0B4F3B68B34208D928006562E6
:102BA000FFF700FB730A1B18A3620120E0E728006F
:102BB000FFF736FF0500FFF7D5FA0028D7D03B68AE
:102BC000F61AE7E730060020F0B585B004000D00E6
:102BD000FFF7C8FA0290002807D0384B1F78022F61
:102BE00046D0032F55D0012F04D000230293029822
:102BF00005B0F0BD324E63081B19580A01933368C3
:102C0000C018FFF7EFFE0028EFD0019B2D4AD90531
:102C100023003B400393C90DEBB200923C4205D028
:102C20000F20525C1B0102401343DBB2009A264F77
:102C300053540123019C3B70E4183368600AC018A8
:102C4000FFF7D0FE0028D0D0039BE405E40D002B55
:102C500006D02D09EDB2009B1D5501233B70C6E740
:102C60000F22009B2D0A1B5D154093431D43F2E785
:102C7000134B60001B68400AC018FFF7B3FE002822
:102C8000B3D0104B2406E40D1D5301220E4B1A70D5
:102C9000ADE70B4BA0001B68400AC018FFF7A2FE6F
:102CA0000028A2D0074B6406E40DE41823682D0128
:102CB0001B0F1B072D092B432360E6E70C6603203F
:102CC000F0080020D00600200B660320F7B5051E93
:102CD0000DD1394B1E68002E19D0384B1B68B342FA
:102CE00015D9374F3B68002B13D1002407E0FFF7BD
:102CF00097FE831E0400043303D90124644220009C
:102D0000FEBD2E4B2E001B688342EAD9F7E7012651
:102D1000E7E72A4B0193AE4213D11B68741CA34210
:102D200000D802242000FFF77BFE431CE5D00028DA
:102D30001DD0214B1B6818000093FFF713FA0028E1
:102D400000D10096009C019B01341B68A34203D86C
:102D5000009B012BC9D902242000FFF761FE002847
:102D600007D00130C9D0009B9C42ECD1BDE7002CBC
:102D7000E7D0012120004942FFF726FF0028BCD000
:102D8000002D0CD10C4B0F4A1C6012683B6893421B
:102D90000CD901230C4A11780B431370AFE72100C3
:102DA0002800FFF711FF0028ECD1A6E7002BF0D098
:102DB000013B3B60EDE7C04628060020F4080020F8
:102DC000240600202C0600206C020020F8B5FFF736
:102DD00009FE0421041E51D0FF232A4D5B00EA5A4C
:102DE000294B9A424AD12948FFF7C8F9002805D152
:102DF00003212748FFF7C2F9011E3FD080222B7B19
:102E0000E97A1B020B4392000021934236D1EA8AF1
:102E10008A4202D16A6A8A4230D02E7C0021731E17
:102E2000012B2BD8697B002928D04B1E194227D1B2
:102E30002B691B021B0C1F0722D1287DEF7C00028F
:102E4000384300D1286AED89002D19D072431B093F
:102E50005B199B18834213D8C01A884210D3FDF720
:102E600079FA0C4B0021984208D80B4B0331984259
:102E700004D80A4B2100984200D902210800F8BD6D
:102E80000021FBE7D006002055AA0000060700201D
:102E900022070020F5FFFF0FF8FF0000F50F0000EC
:102EA000F0B58BB0FFF7D4FAFFF7FAFB03900028D8
:102EB00004D10023039303980BB0F0BD0020FFF76B
:102EC00085FF06000428F4D0002800D0B3E00300FA
:102ED000654906AD1A01885C0022904208D01800AE
:102EE000624A1C3000011218D08812891204024371
:102EF000980001334251042BECD10024A300EB587D
:102F00000193002B07D01800FFF760FF431EDBB2D0
:102F10000600022B06D90134042CEFD1731EDBB25C
:102F2000022BC6D8514BDD8A002D00D15D6A504A74
:102F3000504915601A7C0A706A430592597B4E4AC3
:102F4000480211704D4A10601A691202100C4C4A66
:102F500002901080187DDA7C0002104300D1186ABC
:102F6000484B424C1860E3890493029B049A1B0966
:102F70009B18059A9F18C01BFDF7ECF9019A424B6C
:102F8000944661461860414B02301860404B7F18F0
:102F90001A60049B3F4A634413603F4A1760032E44
:102FA0004CD1029B002B00D083E73C4BE26A8000AF
:102FB0001A60230043331A78636C1B021343384AA8
:102FC0001360384BC018400AA84200D971E70123AA
:102FD000354F364D5B423B602B60354B02930223ED
:102FE000029A1370032E23D1238E012B20D1019836
:102FF0000130FFF7F7FC00281AD00023029A137063
:103000002C4B22689A4213D1F22252002A4BA2582A
:103010009A420DD1FF235B00E25A284B9A4207D116
:10302000F4235B00E3583B60F6235B00E3582B601E
:10303000234B1E703FE70023019373E7029A002A97
:1030400000D136E70599154A5B181360012E05D0AB
:10305000400023000833DA7FA36AAEE7032343432B
:1030600030405B081818F4E792080020D0060020D2
:10307000F80800200D660320FA65032030060020C2
:10308000F8650320D40800202C060020F408002056
:10309000CC060020F0080020980600209C060020A6
:1030A000D0080020FF010000240600202806002090
:1030B0006C020020525261417272416155AA0000B7
:1030C0000C660320F7B50400051E00910BD00378B1
:1030D0001D1E08D08169076ACF1B974200D91700CF
:1030E0000025AF4201D82800FEBD226AD105CB0DD4
:1030F000002940D1510A08002A4B1B78013B184097
:103100000190194208D1002A25D1E6693000FFF765
:1031100029F80028E7D06662606AFFF743F80028C4
:10312000E1D0019B7E1B1B18019380239B009E42D4
:1031300016D300990198FFF7A5FB0028D3D080266D
:10314000B600019BA362009BAD199B190093236AF3
:103150009B192362C5E7606AFFF762FC0600D5E7AA
:103160000198FFF73FFC0028BDD032000E490098BF
:10317000FDF76EF9E5E780229200D31A7E1B9E428E
:1031800000D91E00A06AFFF72DFC0028ABD0216AF1
:10319000054BC905C90D32000098C918FDF758F94B
:1031A000D1E7C046FA650320D006002070B5FFF7CE
:1031B000E5FB051E2BD0174B1B78032B27D1164E92
:1031C0003378012B23D18022144C0021920020005F
:1031D000FDF739F9124B134A2360F2235B00E250EA
:1031E000114B21001A68F4235B00E2500F4B1A6860
:1031F000F6235B00E2500E4A1233E2520D4B186880
:103200000D4B01301860FFF769FB00233370280075
:1032100070BDC0460C6603206C020020D006002062
:10322000525261417272416124060020280600203A
:1032300055AAFFFFCC0600207002002070B5051EC5
:1032400001D1002070BD0378002BFAD0C37A5B0651
:1032500029D50069FFF7C6FB0028F2D00021212202
:1032600028236020EC686173A173E0736374E374D6
:10327000A175E07563762274A2742276EA7A093B1E
:103280001A4001331343E3722000E969FEF7AEFFF1
:1032900001222B7E23776B7E6377AB7EA377EB7E59
:1032A000E377054B1A70FFF781FF0028C9D0402251
:1032B000EB7A9343EB72C5E70B66032010B5041E4F
:1032C00001D1002010BD0378002BFAD0FFF7B6FF24
:1032D0000028F6D000232370F4E70000F8B50400BE
:1032E000FFF74CFB051E02D100252800F8BD200089
:1032F000FEF758FF041EF7D080220A4B0A4F1860D1
:10330000002138009200FDF79EF8084B1E78361910
:10331000B442EAD039002000FFF7E0FA0028E3D0F9
:103320000134F5E770020020D0060020FA65032082
:10333000F7B5066A04002036F3050191DF0D002B76
:1033400031D1836A01338362406A002807D1194B67
:103350001B885B01B34226D8A0620020FEBD164B3D
:10336000720A1B78013B1A421DD1FFF759FB831EDD
:1033700005000433F1D8114B1B6883420ED8019B22
:10338000A762002BE9D0606AFFF7A0FC431E05008E
:103390000333E2D8FFF7A2FF0028DED028006562E1
:1033A000FEF700FFA062064B0120FF182662E760CF
:1033B000D4E7C046F8650320FA650320F40800202E
:1033C000D006002070B504000D003F26A06A00283A
:1033D00007D0FFF707FB002805D0E3681A78002A1A
:1033E00003D10023A362002070BDDB7A3340E52ABD
:1033F00001D0AB43F8D000212000FFF799FF00284F
:10340000E4D1F0E7F8B500210400FFF765FB0028E0
:103410000ED03F260827A06A002807D0FFF7E2FA5F
:10342000051E05D0E1680B78002B04D10023A362B0
:1034300000252800F8BDCB7A1A003240E2723B42E8
:1034400005D10B22200002F05FF80028F1D0002106
:103450002000FFF76DFF0028DDD1E9E773B50B0011
:1034600005000126002001911C0001335A1E12782C
:10347000222A21D0002801D0210001942F2A1DD119
:103480000B000022012418782F281CD05C281AD0A9
:10349000002A01D0190001930023EB610B7864240A
:1034A00010261F2B12D800212800FFF715FB9023B0
:1034B00000281ED1002076BD3000D5E75C2ADFD081
:1034C000164B1B68E9E722000133DCE7280001A95D
:1034D000FEF76CFF0028EDD02800FFF793FF019B5B
:1034E0001B78002808D11F2BE4D82B782E2BE1D095
:1034F000FF230120EB72DEE71F2B0AD9EB7A334260
:10350000D8D0E868FEF760FE013CE4B2E861002C28
:10351000DCD1631E9C41E0B2CDE7C04654060020DA
:10352000F8B5164B04001B78002B03D1002525703D
:103530002800F8BD0028F9D0FFF790FF051EF5D050
:10354000E37AFF2BF2D010221E0016401342EDD179
:103550000B4BE7681B6838002361FEF735FEE0611E
:103560007B7F3A7F1B021343BA7F12041A43FB7F0F
:10357000A6621B061343A3612662D9E70C660320EB
:103580007002002070B50F4B01001B78002B02D198
:103590000024200070BD0C4D2800FFF75FFF041EC3
:1035A000F6D0EB7AFF2BF3D0DA06F1D5074E902B4D
:1035B00002D1EB693360ECE7E868FEF705FE3060A6
:1035C000E7E7C0460C660320A00600205406002052
:1035D00010B5114B04001B78002B02D10020207085
:1035E00010BD0028FAD0FFF739FF0028F6D0E37AA3
:1035F000FF2BF3D0DA06F1D5902B0AD0E068FEF766
:10360000E3FDE06100212000FFF766FA0028E7D122
:10361000E4E72E232370F5E70C660320F7B5324B61
:10362000060001931B780091002B01D10020FEBD04
:10363000009B002BFAD00028F8D02C4B2C4C1B6898
:10364000009DE361E769002F21D1009B30005C1BE6
:103650002200711901F07CFF0023A0B23354E6E789
:10366000244F20003900FEF7D1FD0028DED07A7DFE
:10367000531CAB42DADAA81A1F493018FCF7E8FEEF
:103680007B7DEB1A013B9DB22F237355DAE7019B3B
:103690001B78032B03D1194B1B689F42D5D02021E7
:1036A0002000FFF719FA0028C0D0A06AFFF79AF9A6
:1036B0000028BBD0E068FEF787FD0021E061200014
:1036C000FFF70AFA0028B1D037212000FFF77AFE71
:1036D0000028ABD0E068FEF777FDB842C0D00021EB
:1036E0002000FFF725FEEDE70C66032054060020BE
:1036F000A0060020440900204C0900209C06002060
:10370000F8B504000D0016001F00A36A002B1BD0A3
:1037100031002000FFF756FE002815D0E168380080
:10372000FEF7D0FD011E0BD029002000FEF76EFD34
:10373000051E09D000212000FFF7FAFD2800F8BD82
:103740002000FFF7F5FDE0E70025F7E770B5082456
:103750000C2519491948FDF7FDFD01210C20FDF745
:10376000FDFA174B174A1B68012163402B40136079
:103770000A20FDF7F3FA144B144A1B680121634039
:103780002B4013600B20FDF7E9FA114B114A1B681F
:103790000D2063402B401360FDF76EFB0E4B802223
:1037A0001B6892015C400D4B2C401C60D0231B0613
:1037B0005A615A6270BDC04690D0030000000440B8
:1037C00034C0014034D001402CC001402CD0014015
:1037D00030C0014030D0014038C0014038D00140F5
:1037E000D02380221B06920110B508485A61FDF7CC
:1037F00039FD0C20FDF70CFB0A20FDF709FB0B201F
:10380000FDF706FB0D20FDF703FB10BD0000044093
:10381000021E06D00130411E09780029FAD1801A13
:103820000138704737B5D0246B4680252406AD0398
:10383000D91D0870A56180239B02A3610122024863
:10384000FDF7AFFD656137BD00C0034070B5D02402
:1038500080252406AD030A00A56180239B026361D5
:1038600001000248FDF79DFD656170BD00C0034089
:10387000F7B5D0246B46802600912406B603D91DE7
:1038800008701500A6618027BF02A76101220548C4
:10389000FDF787FD676103482A000099FDF781FD68
:1038A0006661F7BD00C0034070B5D02480262406B1
:1038B000B603A66180256D0332206561FDF7F2FD38
:1038C000A5613220FDF7EEFD96206561FDF7EAFD6A
:1038D000666170BD10B50120FFF7A4FF9620FDF7CB
:1038E000E1FD10BD10B51120FFF79CFF10BD10B514
:1038F0002120FFF797FF10BD07B56B46D91D087053
:1039000001223A20FFF7B4FF07BD000010B50349BC
:10391000012209183620FFF7ABFF10BDFC6E001026
:1039200037B51C006B46013940BA49BA9880D98036
:10393000150001A904222A20FFF79AFF6B46013CDB
:1039400004226DBA01A92B2064BA9D80DC80FFF7A8
:103950008FFF2C20FFF766FF37BD00000022A0215B
:10396000054B49001A60054B1960054B1A60054B61
:10397000F0321A607047C046D8080020DC080020EA
:10398000E0080020E4080020A022064B52001A6044
:103990000022F021044B1A60044B1960044B1A609A
:1039A0007047C046D8080020DC080020E00800204E
:1039B000E408002030B5002801DA12180020A02504
:1039C00084186D00AC4200DD2A1A002A20DD00298F
:1039D00001DA5B180021CC18F02C01DDF0235B1A12
:1039E000002B15DD0B4C2568854200DD206080181A
:1039F000094A1468A04200DD1060084A1068884235
:103A000000DD1160C918064B1A68914200DD19608B
:103A100030BDC046D8080020DC080020E0080020A7
:103A2000E4080020A0235B00984217D2EF2915D8A4
:103A30000B4B1A68824200DD18600A4B1A688242FA
:103A400001DC01301860084B1A688A4200DD1960F9
:103A5000064B1A688A4201DC013119607047C04682
:103A6000D8080020DC080020E0080020E40800203E
:103A7000F7B5214D214E2A6833689A422FDA204C3F
:103A8000204F22683B689A4229DAFF236A46D371A5
:103A9000D02380221B0692035A61802292029A61EF
:103AA0006B460122D91D1848FDF77BFC3B68226854
:103AB000316828689BB292B289B280B2FFF730FFBA
:103AC0002368A02464005C432A683F68A4180F4A56
:103AD0006400A418FF1A002F02DCFFF755FFF7BDA2
:103AE0002B6831682000C91A4900FFF7AFFEA023F8
:103AF0009B00E418013FEEE7D8080020DC08002016
:103B0000E0080020E408002000C0034078090020FD
:103B1000034B1B685840034B80B218607047C04687
:103B20000C0005400C10054010B5024BD878FFF78B
:103B3000EFFF10BD3406002073B53C4C050020009B
:103B40003B49FDF707FC4023226800209343394A94
:103B50000126136080232168D0248B431360FDF776
:103B600063FA04211020FDF7F9F833490020FDF72E
:103B700077FAFF22314B00201A60FFF7C9FF304B64
:103B800024061E6080239B0263610521636211206D
:103B9000FDF7E4F88023DB023100636112206362E9
:103BA000FDF7DCF8274B31001A6820235340302200
:103BB0001340254A1320136080231B036361636253
:103BC000FDF7CCF880235B03636105216362142059
:103BD000FDF7C4F880239B03636105216362152010
:103BE000FDF7BCF8FFF760FEFFF774FEFFF77AFE03
:103BF0006A46164B01A99380B0200222FFF738FED7
:103C00005520FFF779FE3220FDF74CFC2800FFF726
:103C10007DFEFFF76CFE0A20FDF744FCFFF784FFF2
:103C2000FFF7B2FE2920FFF7FDFD73BD00C0034082
:103C300000366E0100D003400022560010000540FF
:103C4000002005404CC001404CD0014000E8FFFF7F
:103C500010B52820FFF7E6FD01220C4B00201A606A
:103C6000FDF7E2F91020FDF7D3F81120FDF7D0F8A9
:103C70001220FDF7CDF81320FDF7CAF81420FDF748
:103C8000C7F81520FDF7C4F810BDC0460030054048
:103C90000022024B1A60024B1A607047E8080020AD
:103CA000EC08002037B50400FDF7E0FE0A4D0B4A92
:103CB0000B482968126800880A4B12011B88C9004A
:103CC00000902000FEF716FA2000FFF7A1FD2B68F8
:103CD0001B182B6037BDC046E8080020EC08002008
:103CE000D0650320D465032037B50400FDF7D4FE6A
:103CF00006200A4D0A4A29681268414309480A4BBE
:103D000000881B88D20000902000FEF7F3F9200005
:103D1000FFF77EFD2B681B182B6037BDE8080020DD
:103D2000EC080020D0650320D465032007B50022ED
:103D300001AB187018005A70FFF7B4FF07BD07B544
:103D4000002201AB187018005A70FFF7CDFF07BDB5
:103D500010B52020FFF7EAFF10BD70B505000C007C
:103D6000002C00DC70BD2800FFF7E0FF013CF7E706
:103D700010B50400002C00DC10BDFFF7E9FF013C8A
:103D8000F8E700001D4B10B519681D4B1B689942E0
:103D900032D20A224A431B4B1B4C9918D35C102287
:103DA000487813400231083A2070A01C6370FCF779
:103DB0004FFB00231548A372E372FFF7E3FB144B9C
:103DC00014211A78200022735A7862739A78DB786B
:103DD000A273E3730F4B1A7822745A7862749A783C
:103DE000DB78A274E374FDF72BFD030A207563757D
:103DF000030C000EA375E07510BDC046FC08002042
:103E00005C0900200E660320001004204D8E032064
:103E1000540600206009002070B51E4C1421627DFC
:103E2000237D12021A43A37DE57D1B0413432D0657
:103E300020001D43FDF704FD854228D1164B227852
:103E4000A11C1A606278154B15481A700822FCF7FD
:103E5000FFFA637B227B1B021343A27B11491204EE
:103E60001A43E37B10481B0613430B60637C227CE0
:103E70001B021343A27C0D4912041A43E37C1B0668
:103E800013430B60F021FFF7C9FB094B18600023B7
:103E9000237070BD00100420DC6403204C8E0320CE
:103EA000448E0320540600204D8E0320600900201C
:103EB00008650320F8B5FFF7EBFE1F231B4E1C4CD3
:103EC0001C4D9C2033802580FFF730FF1221952068
:103ED000FFF743FF9920FFF729FF174A174F136891
:103EE0000133136000239A203B60FFF71FFF1F235D
:103EF000122023803580FFF73BFF1F239A20338059
:103F00002580FFF713FF0C4A1368013313600E2B53
:103F1000E8D1002396203B60FFF708FF122195208F
:103F2000FFF71BFF9320FFF701FFF8BDD4650320C7
:103F3000D0650320FF070000EC080020E8080020FF
:103F4000F8B5002701221F4B1F4E1C681F4B204D48
:103F50001F60204B1A60102C0FDC1F2310213380B0
:103F6000091B1D4B114195202B80FFF7F6FE012305
:103F70005B4237802B80FFF7EBFE00233380013B51
:103F8000164F2B80122C05DC3800FFF78BFE122C0D
:103F900009D1F8BD03212E200F3CFFF7DEFE3819B2
:103FA000FFF780FEF5E7FFF7D3FE112CF1D01F23BA
:103FB00011213380091B084B952049102B80FFF7F6
:103FC000CCFEE6E708650320D4650320EC0800205A
:103FD000D0650320E8080020FF0700004D8E032075
:103FE000F7B5214D2B68002B3DD0204B204C196894
:103FF000002201312000FDF708FD2F23461C29680F
:10400000235400223019FDF700FD0E2233180193CE
:10401000184B194E1A60194B0D3A1A60184B1F278E
:1040200000931E801023019A164D9B1AD90FC918B0
:10403000491095202F80FFF790FE009B2E801F8057
:10404000FFF786FE2000FFF72DFEFFF781FE009BA5
:10405000019A1E8011239B1AD90FC9189520491067
:104060002F80FFF77AFEF7BD5C090020FC080020D6
:10407000418F0320EC080020FF070000E808002023
:10408000D0650320D46503200123F0B5394F3A4EA3
:104090003C6885B0336009335C43384BE418002337
:1040A0000193374B039301221F21039B35481A606C
:1040B000354B364A00681380354B19809C46019970
:1040C0003B68CB18984251DD25781020290001402B
:1040D0000291054201D0113810802E4800689842A4
:1040E00004D1002313806346274A1A80029B2020B4
:1040F000002B00D03B30FFF719FE250062782B1B08
:104100009A422ADC029B2020002B00D03D30FFF792
:104110000DFE09206378C01AFFF72AFE23785B069C
:1041200020D51D48FFF7BEFDFFF712FE23780320C0
:104130007F2B1CD91948FFF7B5FD33680A340133CA
:104140003360019B013301930D2BACD1FFF748FF86
:104150000022134B1A7005B0F0BDA878FFF7E6FDFA
:104160000135CBE70320FFF703FEDDE71220FFF761
:10417000FFFDE2E760090020EC0800200E66032046
:10418000E80800205C090020FF070000D465032038
:10419000D0650320FC080020056F00100A6F001096
:1041A0003E8F03200023F0B5A24AA34C85B0A3485C
:1041B00023601360FFF7E6F9002800D112E1A04B5D
:1041C000A04819000193FFF703FA002800D109E184
:1041D00080279D4DFF009B4A9C4E00923100372264
:1041E0009B4B0098FFF78CFA002814D10199009896
:1041F000FFF7EEF9002808D0944E37223100944B97
:104200000098FFF77DFA00285AD123680021013B6E
:1042100003938D4BE3E010201023B17D727D0840A5
:10422000194204D0012A02D1337A2E2B14D03F2315
:104230000B402B70002813D0022A11D1834B1E7A19
:104240002E2E0DD15B7A2E2B0AD16A70AB70EB70DB
:1042500023680A3501332360013F002FBBD1C5E736
:1042600002260B0033403142F6D100280FD07948A6
:10427000AE1C04E0C15C2E29EED0F15401339A4209
:1042800001DD082BF6D19A42E6D16A70E0E7042AF4
:10429000E2DD714B9B5C2E2BDED1704B9B5C552B72
:1042A000DAD16F4B9B5C462BD6D16E4B9B5C322B8D
:1042B000D2D1043A67496A70A81CFCF7C9F8C7E76D
:1042C00010251022B37D1D40134295D1737D042B20
:1042D00092DD604A1F1F0192D25D2E2A8CD15F4A67
:1042E000D25C542A1FD15E4AD25C582A84D15D4ADE
:1042F000D35C542B80D12368534E0293029B9D4282
:1043000000DB79E773789F420AD13A000199B01C2B
:1043100001F0FAF8002803D14022337813433370B8
:104320000A360135EAE7422A00D065E74C4AD25CFA
:104330004D2A00D060E74B4AD35C502B00D05BE79E
:104340002368414E0293029B9D4200DB54E7737841
:104350009F420BD13A000199B01C01F0D5F800281A
:1043600004D1802233785242134333700A36013528
:10437000E9E71A00D87A01260A32022807D1947890
:104380002E2C04D1D4782E3C651EAC41E6B21278B6
:104390001F7894461022174206D162460124D206A5
:1043A000D20F62401640F6B2624610247A40224292
:1043B00011D15A78041C0192904201D96A461479AD
:1043C000E2B202929A1C00920022029C94420BDC00
:1043D000019A904219D3002E17D001310A33039A63
:1043E0009142C6DB05B0F0BD009C24782500009CFE
:1043F00001340094647AAC4201D10132E5E79C18A3
:104400002200A478127B9442E5D962461C001A70FF
:104410005A780A349F72587062709A1C1078957A94
:104420009072157001329442F8D10029D5DD02391D
:10443000143BD2E7FC0800205C0900204D8E0320CD
:104440001C6F0010000900200E6603202C090020BC
:10445000006F0010340900203009002031090020CD
:1044600032090020330900200023094A10B51360E7
:10447000084A1360084A13600422084B1A70FFF7B9
:1044800019FDFFF75DFD0122054B1A7010BDC046F6
:104490005C090020FC080020600900203E8F0320FA
:1044A0003F8F03202F22054B10B51A7000225A703F
:1044B000034B01321A60FFF7D7FF10BD4D8E03206A
:1044C00008650320F0B51E4E85B033680193002BBC
:1044D0001ED00A251B4B1C4A1B681C4F5D435C1EEB
:1044E0001B4B1278ED181B4B3C6002920393002C7F
:1044F00010DC194B1A68A24201DD22001C600C3C42
:10450000E143C9170C40944200DD1C600023336076
:1045100005B0F0BD6B78019A9A420CD110222B782D
:104520001340029A9A4206D1019A0398A91C00F0FE
:10453000EBFF0028DDD0013C3C600A3DD7E7C046D8
:10454000DC6403205C0900204C8E0320FC08002062
:1045500004660320448E03206009002010B5040087
:10456000FFF756F9FC220A4BD2001A801F22094B92
:104570001A80094B1D3A1A601423181AC30F074AF0
:104580001B185B1020001360FFF78CFB10BDC046AA
:10459000D4650320D0650320EC080020E808002043
:1045A000F8B5134C134D22682B689A4205DA23683C
:1045B0005A1C2260104AD05CF8BD104E3000FDF746
:1045C000A4FF002801D10020F6E780270023FF0088
:1045D0003A00300008492360FEF774FD2860B842B5
:1045E000E5DA3000FEF76AFE2B68002BEBD0DEE741
:1045F000B0650320B4650320418F032010650320BC
:1046000010B5FFF7CDFF0D28FBD010BD07B5002179
:10461000A022F02310000091FDF754FA07BD00001E
:10462000F0B5AC4E85B0307803283DD800F0FCFFE3
:1046300004003E00BE008601A74D2800FEF73EFEA6
:10464000FFF7E4FFA54B1A68A54B1B689A4201D3FC
:10465000042328E00A235343A24AA3499818086078
:10466000995C490601D402231DE044789F48023337
:10467000070099182200FBF7EBFE9D490522E0197F
:10468000FBF7E6FE9B48FEF77DFF39002800FEF7AA
:1046900047FF0028E7D00023974A1360974A13602A
:1046A000974A13600133337005B0F0BD0025954B78
:1046B0002C000193019A944B914F13801B22934B32
:1046C0001D800293924B1A60924B3A681A60FFF772
:1046D00097FF0A282FD000282DD009280CD120239D
:1046E0002B43039303980134FFF729FB1A2C1CD0AA
:1046F00007231C42F6D1EAE75E2852D1FFF780FF7C
:1047000003005D280AD8562825D8392836D83028FD
:1047100045D83CD000280ED00A280CD06B40D8B227
:104720000134FFF70CFB1A2CD1D1FFF769FF0A28DF
:1047300001D00028F9D16C4B0F221B681B787F2B0E
:1047400000D892183B6801333B609342ACDB62486F
:10475000FEF7B4FD87E757380628DFD800F084FF5E
:104760000700190015001C002501DEFF24006A4B1C
:10477000019A13800023029A1380A8E70200413AAD
:10478000D2B2152ACAD8373BC8E7644BF0E7644B6E
:10479000EEE7FC23DB00EBE7F8231B02E8E7303B06
:1047A000BCE76840C0B2BBE7002590E74E4F3D68CC
:1047B0002B787F2B00D84BE74C4C6A78A91C200043
:1047C000FBF746FE6878574905220019FBF740FEC3
:1047D0004848FEF7D7FE404D21002800FEF7A0FE16
:1047E000002800D134E70022434B21001A60434BDC
:1047F00028001A604632FEF765FCE37CA27C1B02AF
:104800001343227D12041A43637D1B0613430122C6
:1048100001339343444A1360444A0192A27D944673
:104820006146E27D12020A43217E09041143627E41
:1048300012060A43D11752184A4001990A604628C5
:1048400003D02548FEF73AFD02E7FF21083BC900E7
:104850008B42F6D8083A8A42F3D863782178344AF2
:104860001B020B439342ECD1E378A2781B02134363
:10487000227912041A4363791B0613432D4A643BC1
:104880009342DED8E27AA37A12021A43237B617B39
:104890001B041343090619430A00274B363A9A4270
:1048A000CFD8E37EA27E1B021343012BC9D1637FC5
:1048B000227F1B021343102BC3D12800FEF754F9AB
:1048C00078223B681B785B06DB171A400C4B1A609A
:1048D0000323E8E63E8F032010650320FC08002038
:1048E0005C0900200E6603200C650320418F032025
:1048F000046F00104D8E0320B4650320B0650320C3
:1049000040650320D46503201084FFFFD065032099
:10491000E8080020EC080020FFFF0000E0FF000096
:1049200010840000096F0010446503203C650320DB
:10493000424D0000DC4A4C009A0700001C4C2368E2
:10494000A02B00DDA0231B01D91DDA1707231A4075
:104950005218A021174D49002B68174F5943174B88
:10496000A0314900C918D2103800FEF7ABFBA022D5
:10497000296801231000FFF71DF82168A02906DD32
:104980003B6AA03949003800C918FEF7EDF80C4918
:104990002A680B680132013B2A600B60EF2A00DDB8
:1049A0004FE7002B00DD7FE64BE780258FE6C04612
:1049B000446503204065032010650320780900202A
:1049C0003C65032010B5FBF767FEFCF731FCFBF7F5
:1049D00089FC0000F0B585B014000391911E82227D
:1049E000802605001F00114B1E2000935200142347
:1049F000FDF7F3F80E4B76003200210020200093E3
:104A00001023FDF75FF803992802FBF791FC0200E1
:104A1000B04200DD32001023210020200097FDF776
:104A200051F8FFF725F805B0F0BDC046FFFF0000C4
:104A30001084000037B50400FDF7E2F82000FEF70F
:104A4000E7FE0500FDF712F814210023491B582248
:104A50002000C9000093034BFDF768FBFFF708F83F
:104A600037BDC046E0FF0000F8B5204C2048FFF7F6
:104A7000E1FF22001F4BE3181B68013302D1043C05
:104A8000002CF7D11C4BE418E40BE403944200D94A
:104A9000164C2600194F80235B019E4209D27A22D0
:104AA00021002000164BFFF795FF3220FCF7FAFC9F
:104AB000F8BD134B7A222100A01BFFF78BFF802348
:104AC000BDB21B029D4201D1AE4205D2802335000A
:104AD0005B029E4200DD1D00F0231B06F818290032
:104AE00000F0CAFD7F19761BD5E7C04600701F0095
:104AF0000E6F0010FC7F0010FC7F00000080001093
:104B0000E0FB000037B504001348FEF7D7FBFDF7C4
:104B100077F82000FEF77CFE0500FCF7A7FF1421C4
:104B2000F823491B1B0268222000C90000930B4B8D
:104B3000FDF7FCFAFEF79CFFFBF790FDFBF786FD07
:104B40000028FBD0FFF762FDFFF7B4F9FFF79CFAEE
:104B5000FEF78EFF37BDC04610650320E0FF000062
:104B6000F0B5070085B02B480E0002920393FEF7C4
:104B7000A5FBFDF745F8FCF779FF3800FEF748FE86
:104B80001424F825211A2D022822234BC9003800AD
:104B90000095FDF7CBFA3000FEF73AFE211A4822C5
:104BA0001D4BC90030000095FDF7C0FA0298FEF7D2
:104BB0002FFE211A6822184BC90002980095FDF7B4
:104BC000B5FA0398FEF724FE211A8822124BC90079
:104BD00003980095FDF7AAFA0A98FEF719FE211A24
:104BE000A8220D4B0A98C9000095FDF79FFAFEF721
:104BF0003FFFFBF733FDFBF729FD0028FBD0FFF754
:104C000005FDFFF757F9FFF73FFAFEF731FF05B053
:104C1000F0BDC04610650320E0FF0000F0B585B090
:104C20000390FBF723FC471D64213800FBF780FB52
:104C30000A25C6B20A216D423800FBF779FB2B002A
:104C4000FA217343164C3030C0188900E0723800E6
:104C5000FBF76EFBC0B2454330363030AD192072E1
:104C6000A572FCF703FF00233821039A200000936C
:104C70000C4BFDF75BFAFBF7F9FB0B4AD3889188E5
:104C8000C01AC91AC343039ADB172232184088425C
:104C900000DD0800FC23DB00FFF79CFE05B0F0BD43
:104CA0008E020020E0FF000034060020F7B5FCF77C
:104CB000A7FF0025FBF7D2FCB326FCF7D7FE132392
:104CC0001B7850482F3300227C2103724E4BFDF796
:104CD000E3F91720FFF7A2FF4C484B4B4D221C2154
:104CE000FDF7DAF94A4C4B48237E002B00D04A48A6
:104CF000002386214D2200934900434BFDF7FAF92A
:104D0000662220214548404BFDF7C6F9A7780A21C5
:104D10003800FBF71FFBC0B26D2F3FD9BE429B414D
:104D20003F4A13403F4A9B1876221921FFF752FE53
:104D30008A221A213C48344BFDF7AEF9A3222021E8
:104D40003A48314BFDF7A8F9394BE0781B68984792
:104D50002023181AFC2332000821C0B2DB00FFF721
:104D600039FEC7221A213348274BFDF795F9264B08
:104D7000E02238213048FDF78FF9FEF779FE6420F4
:104D8000FCF790FBFBF762FC03000138072829D8E9
:104D900000F062FC191F251C28280710FC23DB00EB
:104DA000C2E7237E5A4253415B422376FBF756FC0F
:104DB000012584E7002D01D0FCF79CFD00211F4B4D
:104DC00008001B689847FCF7BBFCEFE7FCF7C6FC44
:104DD000ECE7E378012BE9D9FCF7F2FCE6E7FCF716
:104DE000DDFCE3E7062B00D069E7002D01D0FCF7DE
:104DF00081FDFFF70BFCFFF75DF8FFF745F9FEF7C4
:104E000037FEF7BD84020020FFFF0000216F001075
:104E1000340600201D6F0010196F00103F6F001046
:104E200020F8FFFFE0FF00004F6F0010726F0010CE
:104E3000C0650320886F0010AA6F00105065032022
:104E400010B50400FBF728FCFCF7F2F980222000E3
:104E50009205064BA1180A1A002801DCFBF749FA53
:104E60001C78013814700133F5E7C046780900203A
:104E70000A2070B5FCF716FBFBF7F8FA1E4B9842B8
:104E800039DDFBF7EBFB35263400FCF7B9FEFCF708
:104E9000EDFD322220211948194BFDF713F9882125
:104EA00032222000164B4900FCF73AFFBE223C217B
:104EB0001448154BFDF7F0F86425FEF7D9FDFBF714
:104EC000C5FB002817D10A30013DFCF7EBFA002D95
:104ED000F5D1013CE4B2302CD7D1FCF791FEFEF7BE
:104EE000C7FD2800FEF714FEFBF7B0FB0028FBD03F
:104EF000FEF71AFEC8E770BDF8110000C56F00107C
:104F0000E0FF0000D56F0010FFFF00000022F0B5A9
:104F1000C44BC54E1F6887B01A60B74205D0C34B5B
:104F20001B7E934201D0FFF7A3FF0024C04B00215A
:104F3000C04A18000593FBF786FAFEF70FFDBE4B3B
:104F4000BE481C60FDF7DEFAFFF7ACFAFEF7B2FFD1
:104F5000BB48FFF703FBBB4BBB499B6ABB4A5B18D3
:104F600013600123BA4D2B70FDF79AFFA04209D1BF
:104F7000B74215D002000100FDF7CEFAA0420FD0D3
:104F8000FFF720FDB34B1C60FEF746FFB248FFF76A
:104F9000E5FA2C70FFF706F9FFF794FAFFF774F8BB
:104FA000FEF766FDA74BA94A996AAC481368CB1A6D
:104FB00083420FDD1160FDF773FFA54C23780028B5
:104FC0001AD1002B06D1FFF721FBFFF76BFA9C48A3
:104FD000FFF7C4FAFBF73AFB002800D16CE2013876
:104FE0000728F7D800F020FB470052002B001800DC
:104FF00065025C0267003902002BEBD0FFF706FB6D
:105000009548FFF7ABFA00232370FFF7CBF8FFF7C3
:1050100059FAFFF739F8DDE7914A924912680B68AF
:10502000013A9A42D6DD5A1C0B3B0A60DA43D2178A
:105030001340884A11689942EBDA1360E9E7884B1C
:1050400088481B6801685D1E8D42C3DD0D3BDA4355
:10505000804CD217134022689A420ADA0C320C258F
:105060009A4202DDD21AAD1A1A0049192260016073
:10507000CFE70560CDE77B4A1368002BAADD013B33
:105080001360744A11688B42C3DAD6E775490A681F
:10509000002A9FDD6F480368002B09DD1C000C3CD3
:1050A00004D40C23D21A04600A60B2E70024F9E7A2
:1050B00000230B60ADE76B4B694A1B681268934293
:1050C00088D20A26684A5E4304920499B25C8C191D
:1050D0006649039110210A424CD0654E67783568C5
:1050E000022F30D1A2782E2A2DD1E2782E2A2AD171
:1050F0002C0000230F39039A2700013C125D2F2A50
:105100001FD1002B00D037604B4BEA1B1A60039B6A
:105110005848D919FBF79CF91022574B1A70012FE8
:1051200000DD34600023326803998B54494A1360D0
:10513000FFF79AF9434B44499B6A444A5B18136052
:1051400048E70B00D7E76A1CD119F029EADC012DEA
:1051500003D02F210398415515000A215943039A82
:10516000049B0231501959183A007F19FBF770F966
:105170003760D7E7314D02362800FEF79FF8677891
:10518000049B3E4CF1183A002000FBF761F93C49C2
:1051900005223819FBF75CF93A4F3800FFF74AFC53
:1051A0000398FEF7EFF921002800FEF7B9F900286F
:1051B00003D13548FFF7A6FC0CE720222100280088
:1051C000FDF780FF314B18600393637B227B1B024A
:1051D0001343A27B2E4812041A43E37B1B0613439E
:1051E000F022120699180E002A4A1640114200D0E9
:1051F000B9E0627F217F12020A43A17F09041143B3
:10520000E27F12060A4324498A424FD02348244BA6
:10521000244A25490090FFF7A3FC2800FEF74EF82A
:10522000D8E6C0461C8005404C6F616434060020FF
:1052300078090020605B0300DC6403201065032014
:10524000EF6F001000400540807BE1FFD864032031
:105250003F8F032060090020FE6F001040420F00C6
:105260005C090020FC0800200E6603204D8E032000
:1052700008650320448E03204C8E0320418F0320B9
:105280000F700010147000101F700010B465032020
:1052900030700010FFFFFFEF56FF8BE41C6F001013
:1052A0004470001055700010677000108022920545
:1052B000934223D18248FFF7BDFB340020273900F9
:1052C0002800FDF751FC8022059B28009919520007
:1052D000FDF7F8FE7B4B1860002807DD80239B005C
:1052E000FF18794B241826009C42E8DD2800FDF7C2
:1052F000E5FFFEF747FD2000FFF7A2FDFFF7B4FB37
:1053000038008027FFF796FB7F0070492800FDF7E3
:105310002BFC3A0021002800FDF7D4FE039B060079
:105320001860B8421ED12100C0314B780A781B02A8
:1053300013438A7812041A43CB781B061343644A3A
:1053400093420FD1C4346278237812021A43A378AF
:10535000E4781B04134324061C4322005D4B0A3AE5
:105360009A4203D95C48FFF7CDFB56E7230080251E
:10537000CC330493554B343C2D020393002C1FDD9A
:10538000802292009446039B544F634419003800D6
:105390000393FDF7E9FB8022514938007118520050
:1053A000FDF790FE474B1860002809D0C023013656
:1053B000013CFF36FF3C9B009E42DFDD8026F6006D
:1053C000FC2348487A220499DB002818FFF702FBE7
:1053D000002E04D032002800414900F035F9AD1903
:1053E000002C04DD0026374B1B68B342C8DC3B4869
:1053F000FDF764FF3C4B9D4223DC3C4B1E68F72EBF
:105400001FDC8022364CFF2152002000FBF71BF8E6
:105410005023721C3649374823716671FBF718F820
:10542000711D3548FCF70CFA8022030A2070637066
:10543000030C000EE070210028005200A37000F061
:1054400003F9002211001000FDF766F8002802D0D1
:10545000FEF798FC94E52048ACE6244D2A68012A22
:1054600000DCB7E514000023214F2600013C395D24
:105470002F2913D1002B00D02E60204B921B2048E7
:10548000B9191A60FAF7E4FF10221E4B1A70012EA8
:1054900000DD2C6000232A68BB5447E60123E4E7C3
:1054A000002211001000FDF737F8002800D191E527
:1054B000CEE7FFF7FBFB8DE5FFF7B2F870E5C046DE
:1054C00079700010B4650320605A030020000100C9
:1054D000505041442A6F1F008D700010106503204A
:1054E000418F03200080FFFF00EF1F0008650320AD
:1054F0004D8E0320498F0320458F0320DC64032059
:10550000448E03204C8E032030B5032A0CD90B00A7
:1055100003439B0719D104680B689C4215D1043AD8
:1055200004300431032AF6D8551E002A0BD000237C
:1055300003E05A1C9D4206D01300C25CCC5CA24220
:10554000F7D0101B00E0002030BD551EEFE7C0462D
:10555000F0B5CE46474680B588420DD98B189842A3
:105560000AD2531E002A03D0CA5CC254013BFBD2AC
:10557000C0BCB946B046F0BD0F2A0BD80500561E78
:10558000002AF5D00023CC5C1A00EC54013396427B
:10559000F9D1EDE703000B4388469B0734D1102671
:1055A0001700B1460C000300103F3F093F01C51929
:1055B000A94426681E6066685E60A6689E60E6680C
:1055C0001034DE601E001033AE42F2D1CF19390024
:1055D0000F230C2610318C461340164217D0444638
:1055E000043B9B089B00FF181437061B0C688D19A1
:1055F00004312C60B942F9D16146043359184B4447
:105600001D0003231A40BAE70500561EBAE74D46AF
:105610001A00B4E70000000001B40248844601BC4F
:10562000604700BF3901002001B40248844601BC34
:10563000604700BF3502002001B40248844601BC27
:10564000604700BF0100002001B40248844601BC4D
:10565000604700BFC100002001B40248844601BC7D
:10566000604700BF0D02002001B40248844601BC1F
:10567000604700BF2102002001B40248844601BCFB
:10568000604700BF1900002004030205090807064F
:105690000A06FF070809040500030102FFFFFFFFD8
:1056A000FFFF4042FF00010240FFFFFFFFFF020338
:1056B00000010405FF00FFFFFFFF030401020506D0
:1056C000FFFFFFFFFFFF020301000405F656001075
:1056D000F0560010EA560010E4560010E056001094
:1056E000464154004641543332004641543136005D
:1056F0004641543132006E6F6E65000000A8000014
:1057000000000000707060700000000000002020A9
:1057100000002020000020200000202000000000C9
:105720000000000000000000000000000000000079
:105730000000000000000000000000000000000069
:105740000000000000000000000000000000000059
:1057500000000000000000000000000060000000E9
:105760000000000000000000000000000000000039
:10577000000000000000000000000008001CE0FC29
:10578000001CE0FC001CE0FC001CE0FCFFFFAFAFD5
:10579000FFFFAFAFFFFFAFAFFFFFAFAFFFFFFFFFF9
:1057A000FFFFFFFFFFFFFFFFFFFFFFFFFFFFFFFF09
:1057B000FFFFFFFFFFFFFFFFFFFFFFFFFFFFFFFFF9
:1057C000FFFFFFFFFFFFFFFFFFFFFFFFFFFFFFFFE9
:1057D000FFFFFFFFFFFFFFFFFFFFFFFF9FFFFFFF39
:1057E000FFFFFFFFFFFFFFFFFFFFFFFFFFFFFFFFC9
:1057F000FFFFFFFFFFFFFFFFFFFFFFF70054303009
:105800005020702088F850701020202000002020A8
:105810000000202000002020000020200020485010
:105820002000401010200000000000007060707028
:1058300010F870F870700000000000707070F07068
:10584000E0F8F87088F8089080888870F070F07040
:10585000F88888888888F8380070200090008000D8
:1058600008003000802008404000000000000000D8
:10587000200000000000003820E02808001CE0FCA8
:10588000001CE0FC001CE0FC001CE0FCFFFFAFAFD4
:10589000FFFFAFAFFFFFAFAFFFFFAFAFFFDFB7AFB0
:1058A000DFFFBFEFEFDFFFFFFFFFFFFF8F9F8F8F58
:1058B000EF078F078F8FFFFFFFFFFF8F8F8F0F8FF8
:1058C0001F07078F7707F76F7F77778F0F8F0F8F00
:1058D00007777777777707C7FF8FDFFF6FFF7FFF48
:1058E000F7FFCFFF7FDFF7BFBFFFFFFFFFFFFFFF28
:1058F000DFFFFFFFFFFFFFC7DF1FD7F700A84878D4
:10590000F870A870D8A848201870602030002020B7
:10591000000020200000202000002020002048F867
:10592000F8C8A020201050200000000898A0888807
:1059300030808008888800201000408898888888F7
:1059400090808088882008A080D8C888888888802F
:105950002088888850880820801050006070803827
:10596000087040788000005040D0F070F0783870B7
:10597000708888888888F82020205008001CE0FC67
:10598000001CE0FC001CE0FC001CE0FCCF1FAF2F63
:10599000C303A323FF0FAF2F8303A323FFDFB707A7
:1059A00007375FDFDFEFAFDFFFFFFFF7675F777777
:1059B000CF7F7FF77777FFDFEFFFBF776777777767
:1059C0006F7F7F7777DFF75F7F2737777777777F0F
:1059D000DF777777AF77F7DF7FEFAFFF9F8F7FC7F7
:1059E000F78FBF877FFFFFAFBF2F0F8F0F87C78F47
:1059F0008F777777777707DFDFDFAFF7005484FCA7
:105A0000F8F8F8F888F848F8FCF8FC2078E020E08E
:105A10003CFC3CFC20E020E03CFC3CFC0020005036
:105A2000A0D040002010202000000010A820083046
:105A300050F0F0107088200020F82010A888F08026
:105A400088F0F080F82008C080A8A888888888702E
:105A50002088888820501020401088000008F040DE
:105A60007888E088F060086040A88888888840804E
:105A7000208888A8508810C020180010001CE0FC66
:105A8000001CE0FC001CE0FC001CE0FC87FFAFEF0A
:105A9000FFFFBFFFAFEFAFEFBFFFBFFFFFDFFFAF06
:105AA0005F2FBFFFDFEFDFDFFFFFFFEF57DFF7CF36
:105AB000AF0F0FEF8F77DFFFDF07DFEF57770F7F36
:105AC000770F0F7F07DFF73F7F5757777777778F0E
:105AD000DF777777DFAFEFDFBFEF77FFFFF70FBF3E
